{
  "address": "0x7383B894719d73b139d22603C2aFfFCa34a53a76",
  "abi": [
    {
      "inputs": [],
      "stateMutability": "nonpayable",
      "type": "constructor"
    },
    {
      "inputs": [],
      "name": "AlreadyRegistered",
      "type": "error"
    },
    {
      "anonymous": false,
      "inputs": [
        {
          "indexed": true,
          "internalType": "address",
          "name": "_address",
          "type": "address"
        }
      ],
      "name": "NewRegistration",
      "type": "event"
    },
    {
      "anonymous": false,
      "inputs": [
        {
          "indexed": true,
          "internalType": "bytes32",
          "name": "role",
          "type": "bytes32"
        },
        {
          "indexed": true,
          "internalType": "bytes32",
          "name": "previousAdminRole",
          "type": "bytes32"
        },
        {
          "indexed": true,
          "internalType": "bytes32",
          "name": "newAdminRole",
          "type": "bytes32"
        }
      ],
      "name": "RoleAdminChanged",
      "type": "event"
    },
    {
      "anonymous": false,
      "inputs": [
        {
          "indexed": true,
          "internalType": "bytes32",
          "name": "role",
          "type": "bytes32"
        },
        {
          "indexed": true,
          "internalType": "address",
          "name": "account",
          "type": "address"
        },
        {
          "indexed": true,
          "internalType": "address",
          "name": "sender",
          "type": "address"
        }
      ],
      "name": "RoleGranted",
      "type": "event"
    },
    {
      "anonymous": false,
      "inputs": [
        {
          "indexed": true,
          "internalType": "bytes32",
          "name": "role",
          "type": "bytes32"
        },
        {
          "indexed": true,
          "internalType": "address",
          "name": "account",
          "type": "address"
        },
        {
          "indexed": true,
          "internalType": "address",
          "name": "sender",
          "type": "address"
        }
      ],
      "name": "RoleRevoked",
      "type": "event"
    },
    {
      "inputs": [],
      "name": "DEFAULT_ADMIN_ROLE",
      "outputs": [
        {
          "internalType": "bytes32",
          "name": "",
          "type": "bytes32"
        }
      ],
      "stateMutability": "view",
      "type": "function"
    },
    {
      "inputs": [],
      "name": "ensContract",
      "outputs": [
        {
          "internalType": "address",
          "name": "",
          "type": "address"
        }
      ],
      "stateMutability": "view",
      "type": "function"
    },
    {
      "inputs": [
        {
          "internalType": "address",
          "name": "",
          "type": "address"
        },
        {
          "internalType": "address",
          "name": "",
          "type": "address"
        }
      ],
      "name": "ensRated",
      "outputs": [
        {
          "internalType": "bool",
          "name": "",
          "type": "bool"
        }
      ],
      "stateMutability": "view",
      "type": "function"
    },
    {
      "inputs": [
        {
          "internalType": "address",
          "name": "",
          "type": "address"
        }
      ],
      "name": "ensRating",
      "outputs": [
        {
          "internalType": "uint16",
          "name": "count",
          "type": "uint16"
        },
        {
          "internalType": "uint8",
          "name": "score",
          "type": "uint8"
        }
      ],
      "stateMutability": "view",
      "type": "function"
    },
    {
      "inputs": [
        {
          "internalType": "bytes32",
          "name": "role",
          "type": "bytes32"
        }
      ],
      "name": "getRoleAdmin",
      "outputs": [
        {
          "internalType": "bytes32",
          "name": "",
          "type": "bytes32"
        }
      ],
      "stateMutability": "view",
      "type": "function"
    },
    {
      "inputs": [
        {
          "internalType": "bytes32",
          "name": "role",
          "type": "bytes32"
        },
        {
          "internalType": "address",
          "name": "account",
          "type": "address"
        }
      ],
      "name": "grantRole",
      "outputs": [],
      "stateMutability": "nonpayable",
      "type": "function"
    },
    {
      "inputs": [
        {
          "internalType": "address",
          "name": "_address",
          "type": "address"
        }
      ],
      "name": "grantRole",
      "outputs": [],
      "stateMutability": "nonpayable",
      "type": "function"
    },
    {
      "inputs": [
        {
          "internalType": "bytes32",
          "name": "role",
          "type": "bytes32"
        },
        {
          "internalType": "address",
          "name": "account",
          "type": "address"
        }
      ],
      "name": "hasRole",
      "outputs": [
        {
          "internalType": "bool",
          "name": "",
          "type": "bool"
        }
      ],
      "stateMutability": "view",
      "type": "function"
    },
    {
      "inputs": [],
      "name": "hashContract",
      "outputs": [
        {
          "internalType": "address",
          "name": "",
          "type": "address"
        }
      ],
      "stateMutability": "view",
      "type": "function"
    },
    {
      "inputs": [
        {
          "internalType": "address",
          "name": "",
          "type": "address"
        },
        {
          "internalType": "bytes32",
          "name": "",
          "type": "bytes32"
        }
      ],
      "name": "hashRated",
      "outputs": [
        {
          "internalType": "bool",
          "name": "",
          "type": "bool"
        }
      ],
      "stateMutability": "view",
      "type": "function"
    },
    {
      "inputs": [
        {
          "internalType": "address",
          "name": "",
          "type": "address"
        }
      ],
      "name": "hashRating",
      "outputs": [
        {
          "internalType": "uint16",
          "name": "count",
          "type": "uint16"
        },
        {
          "internalType": "uint8",
          "name": "score",
          "type": "uint8"
        }
      ],
      "stateMutability": "view",
      "type": "function"
    },
    {
      "inputs": [
        {
          "internalType": "address",
          "name": "_address",
          "type": "address"
        }
      ],
      "name": "register",
      "outputs": [],
      "stateMutability": "nonpayable",
      "type": "function"
    },
    {
      "inputs": [
        {
          "internalType": "address",
          "name": "",
          "type": "address"
        }
      ],
      "name": "registered",
      "outputs": [
        {
          "internalType": "bool",
          "name": "",
          "type": "bool"
        }
      ],
      "stateMutability": "view",
      "type": "function"
    },
    {
      "inputs": [
        {
          "internalType": "bytes32",
          "name": "role",
          "type": "bytes32"
        },
        {
          "internalType": "address",
          "name": "account",
          "type": "address"
        }
      ],
      "name": "renounceRole",
      "outputs": [],
      "stateMutability": "nonpayable",
      "type": "function"
    },
    {
      "inputs": [
        {
          "internalType": "bytes32",
          "name": "role",
          "type": "bytes32"
        },
        {
          "internalType": "address",
          "name": "account",
          "type": "address"
        }
      ],
      "name": "revokeRole",
      "outputs": [],
      "stateMutability": "nonpayable",
      "type": "function"
    },
    {
      "inputs": [
        {
          "internalType": "address",
          "name": "_from",
          "type": "address"
        },
        {
          "internalType": "address",
          "name": "_to",
          "type": "address"
        },
        {
          "internalType": "bool",
          "name": "_bool",
          "type": "bool"
        }
      ],
      "name": "setEnsRated",
      "outputs": [],
      "stateMutability": "nonpayable",
      "type": "function"
    },
    {
      "inputs": [
        {
          "internalType": "address",
          "name": "_address",
          "type": "address"
        },
        {
          "components": [
            {
              "internalType": "uint16",
              "name": "count",
              "type": "uint16"
            },
            {
              "internalType": "uint8",
              "name": "score",
              "type": "uint8"
            }
          ],
          "internalType": "struct DataTypes.Record",
          "name": "record",
          "type": "tuple"
        }
      ],
      "name": "setEnsRating",
      "outputs": [],
      "stateMutability": "nonpayable",
      "type": "function"
    },
    {
      "inputs": [
        {
          "internalType": "address",
          "name": "_address",
          "type": "address"
        },
        {
          "internalType": "bytes32",
          "name": "_txHash",
          "type": "bytes32"
        },
        {
          "internalType": "bool",
          "name": "_bool",
          "type": "bool"
        }
      ],
      "name": "setHashRated",
      "outputs": [],
      "stateMutability": "nonpayable",
      "type": "function"
    },
    {
      "inputs": [
        {
          "internalType": "address",
          "name": "_address",
          "type": "address"
        },
        {
          "components": [
            {
              "internalType": "uint16",
              "name": "count",
              "type": "uint16"
            },
            {
              "internalType": "uint8",
              "name": "score",
              "type": "uint8"
            }
          ],
          "internalType": "struct DataTypes.Record",
          "name": "record",
          "type": "tuple"
        }
      ],
      "name": "setHashRating",
      "outputs": [],
      "stateMutability": "nonpayable",
      "type": "function"
    },
    {
      "inputs": [
        {
          "internalType": "bytes4",
          "name": "interfaceId",
          "type": "bytes4"
        }
      ],
      "name": "supportsInterface",
      "outputs": [
        {
          "internalType": "bool",
          "name": "",
          "type": "bool"
        }
      ],
      "stateMutability": "view",
      "type": "function"
    }
  ],
  "transactionHash": "0x6f00a95880f4dc6f1a165d2d346f067cf743ce3d1ff50a354c0c5bc539f6122e",
  "args": [],
  "numDeployments": 1,
  "solcInputHash": "184d43ce10a1ceb6fcab0d273d83e2f2",
  "bytecode": "0x60806040523480156200001157600080fd5b506000306040516200002390620002f2565b6200002f919062000353565b604051809103906000f0801580156200004c573d6000803e3d6000fd5b509050600030604051620000609062000300565b6200006c919062000353565b604051809103906000f08015801562000089573d6000803e3d6000fd5b509050620000be7fe59458b7a5303dd77a30fa0f72c23b33433ec33afd8d5095391880cb8e6a8675836200018f60201b60201c565b620000f07fe59458b7a5303dd77a30fa0f72c23b33433ec33afd8d5095391880cb8e6a8675826200018f60201b60201c565b620001056000801b336200018f60201b60201c565b81600660006101000a81548173ffffffffffffffffffffffffffffffffffffffff021916908373ffffffffffffffffffffffffffffffffffffffff16021790555080600760006101000a81548173ffffffffffffffffffffffffffffffffffffffff021916908373ffffffffffffffffffffffffffffffffffffffff160217905550505062000370565b620001a182826200028060201b60201c565b6200027c57600160008084815260200190815260200160002060000160008373ffffffffffffffffffffffffffffffffffffffff1673ffffffffffffffffffffffffffffffffffffffff16815260200190815260200160002060006101000a81548160ff02191690831515021790555062000221620002ea60201b60201c565b73ffffffffffffffffffffffffffffffffffffffff168173ffffffffffffffffffffffffffffffffffffffff16837f2f8788117e7eff1d82e926ec794901d17c78024a50270940304540a733656f0d60405160405180910390a45b5050565b600080600084815260200190815260200160002060000160008373ffffffffffffffffffffffffffffffffffffffff1673ffffffffffffffffffffffffffffffffffffffff16815260200190815260200160002060009054906101000a900460ff16905092915050565b600033905090565b610f398062001ddc83390190565b610d7b8062002d1583390190565b600073ffffffffffffffffffffffffffffffffffffffff82169050919050565b60006200033b826200030e565b9050919050565b6200034d816200032e565b82525050565b60006020820190506200036a600083018462000342565b92915050565b611a5c80620003806000396000f3fe608060405234801561001057600080fd5b506004361061012c5760003560e01c80636881e763116100ad578063b2dd5c0711610071578063b2dd5c071461033f578063c39b3f111461036f578063d42579971461038b578063d547741f146103bc578063dbb5a0e3146103d85761012c565b80636881e763146102875780637a1bcf45146102a557806388060f65146102d557806391d14854146102f1578063a217fddf146103215761012c565b806336568abe116100f457806336568abe146101e757806338977686146102035780633c8783d91461021f5780634420e4861461024f57806350fec3201461026b5761012c565b806301ffc9a714610131578063084539c514610161578063248a9ca31461017d5780632f2ff15d146101ad5780632ff3e8f3146101c9575b600080fd5b61014b6004803603810190610146919061107c565b610409565b60405161015891906110c4565b60405180910390f35b61017b60048036038101906101769190611161565b610483565b005b610197600480360381019061019291906111d7565b610501565b6040516101a49190611213565b60405180910390f35b6101c760048036038101906101c2919061122e565b610520565b005b6101d1610541565b6040516101de919061127d565b60405180910390f35b61020160048036038101906101fc919061122e565b610567565b005b61021d60048036038101906102189190611298565b6105ea565b005b610239600480360381019061023491906112c5565b610625565b60405161024691906110c4565b60405180910390f35b61026960048036038101906102649190611298565b610654565b005b61028560048036038101906102809190611161565b6107a0565b005b61028f61081e565b60405161029c919061127d565b60405180910390f35b6102bf60048036038101906102ba9190611305565b610844565b6040516102cc91906110c4565b60405180910390f35b6102ef60048036038101906102ea9190611371565b610873565b005b61030b6004803603810190610306919061122e565b61090b565b60405161031891906110c4565b60405180910390f35b610329610975565b6040516103369190611213565b60405180910390f35b61035960048036038101906103549190611298565b61097c565b60405161036691906110c4565b60405180910390f35b610389600480360381019061038491906113c4565b61099c565b005b6103a560048036038101906103a09190611298565b610a60565b6040516103b3929190611450565b60405180910390f35b6103d660048036038101906103d1919061122e565b610a9f565b005b6103f260048036038101906103ed9190611298565b610ac0565b604051610400929190611450565b60405180910390f35b60007f7965db0b000000000000000000000000000000000000000000000000000000007bffffffffffffffffffffffffffffffffffffffffffffffffffffffff1916827bffffffffffffffffffffffffffffffffffffffffffffffffffffffff1916148061047c575061047b82610aff565b5b9050919050565b7fe59458b7a5303dd77a30fa0f72c23b33433ec33afd8d5095391880cb8e6a86756104ad81610b69565b81600460008573ffffffffffffffffffffffffffffffffffffffff1673ffffffffffffffffffffffffffffffffffffffff16815260200190815260200160002081816104f99190611624565b905050505050565b6000806000838152602001908152602001600020600101549050919050565b61052982610501565b61053281610b69565b61053c8383610b7d565b505050565b600760009054906101000a900473ffffffffffffffffffffffffffffffffffffffff1681565b61056f610c5d565b73ffffffffffffffffffffffffffffffffffffffff168173ffffffffffffffffffffffffffffffffffffffff16146105dc576040517f08c379a00000000000000000000000000000000000000000000000000000000081526004016105d3906116b5565b60405180910390fd5b6105e68282610c65565b5050565b6000801b6105f781610b69565b6106217fe59458b7a5303dd77a30fa0f72c23b33433ec33afd8d5095391880cb8e6a867583610b7d565b5050565b60056020528160005260406000206020528060005260406000206000915091509054906101000a900460ff1681565b7fe59458b7a5303dd77a30fa0f72c23b33433ec33afd8d5095391880cb8e6a867561067e81610b69565b600160008373ffffffffffffffffffffffffffffffffffffffff1673ffffffffffffffffffffffffffffffffffffffff16815260200190815260200160002060009054906101000a900460ff1615610702576040517f3a81d6fc00000000000000000000000000000000000000000000000000000000815260040160405180910390fd5b60018060008473ffffffffffffffffffffffffffffffffffffffff1673ffffffffffffffffffffffffffffffffffffffff16815260200190815260200160002060006101000a81548160ff0219169083151502179055508173ffffffffffffffffffffffffffffffffffffffff167f894e56e1dac400b4475c83d8af0f0aa44de17c62764bd82f6e768a504e24246160405160405180910390a25050565b7fe59458b7a5303dd77a30fa0f72c23b33433ec33afd8d5095391880cb8e6a86756107ca81610b69565b81600260008573ffffffffffffffffffffffffffffffffffffffff1673ffffffffffffffffffffffffffffffffffffffff16815260200190815260200160002081816108169190611624565b905050505050565b600660009054906101000a900473ffffffffffffffffffffffffffffffffffffffff1681565b60036020528160005260406000206020528060005260406000206000915091509054906101000a900460ff1681565b7fe59458b7a5303dd77a30fa0f72c23b33433ec33afd8d5095391880cb8e6a867561089d81610b69565b81600360008673ffffffffffffffffffffffffffffffffffffffff1673ffffffffffffffffffffffffffffffffffffffff168152602001908152602001600020600085815260200190815260200160002060006101000a81548160ff02191690831515021790555050505050565b600080600084815260200190815260200160002060000160008373ffffffffffffffffffffffffffffffffffffffff1673ffffffffffffffffffffffffffffffffffffffff16815260200190815260200160002060009054906101000a900460ff16905092915050565b6000801b81565b60016020528060005260406000206000915054906101000a900460ff1681565b7fe59458b7a5303dd77a30fa0f72c23b33433ec33afd8d5095391880cb8e6a86756109c681610b69565b81600560008673ffffffffffffffffffffffffffffffffffffffff1673ffffffffffffffffffffffffffffffffffffffff16815260200190815260200160002060008573ffffffffffffffffffffffffffffffffffffffff1673ffffffffffffffffffffffffffffffffffffffff16815260200190815260200160002060006101000a81548160ff02191690831515021790555050505050565b60026020528060005260406000206000915090508060000160009054906101000a900461ffff16908060000160029054906101000a900460ff16905082565b610aa882610501565b610ab181610b69565b610abb8383610c65565b505050565b60046020528060005260406000206000915090508060000160009054906101000a900461ffff16908060000160029054906101000a900460ff16905082565b60007f01ffc9a7000000000000000000000000000000000000000000000000000000007bffffffffffffffffffffffffffffffffffffffffffffffffffffffff1916827bffffffffffffffffffffffffffffffffffffffffffffffffffffffff1916149050919050565b610b7a81610b75610c5d565b610d46565b50565b610b87828261090b565b610c5957600160008084815260200190815260200160002060000160008373ffffffffffffffffffffffffffffffffffffffff1673ffffffffffffffffffffffffffffffffffffffff16815260200190815260200160002060006101000a81548160ff021916908315150217905550610bfe610c5d565b73ffffffffffffffffffffffffffffffffffffffff168173ffffffffffffffffffffffffffffffffffffffff16837f2f8788117e7eff1d82e926ec794901d17c78024a50270940304540a733656f0d60405160405180910390a45b5050565b600033905090565b610c6f828261090b565b15610d4257600080600084815260200190815260200160002060000160008373ffffffffffffffffffffffffffffffffffffffff1673ffffffffffffffffffffffffffffffffffffffff16815260200190815260200160002060006101000a81548160ff021916908315150217905550610ce7610c5d565b73ffffffffffffffffffffffffffffffffffffffff168173ffffffffffffffffffffffffffffffffffffffff16837ff6391f5c32d9c69d2a47ea670b442974b53935d1edc7fd64eb21e047a839171b60405160405180910390a45b5050565b610d50828261090b565b610ddf57610d758173ffffffffffffffffffffffffffffffffffffffff166014610de3565b610d838360001c6020610de3565b604051602001610d949291906117de565b6040516020818303038152906040526040517f08c379a0000000000000000000000000000000000000000000000000000000008152600401610dd69190611862565b60405180910390fd5b5050565b606060006002836002610df691906118bd565b610e0091906118ff565b67ffffffffffffffff811115610e1957610e18611933565b5b6040519080825280601f01601f191660200182016040528015610e4b5781602001600182028036833780820191505090505b5090507f300000000000000000000000000000000000000000000000000000000000000081600081518110610e8357610e82611962565b5b60200101907effffffffffffffffffffffffffffffffffffffffffffffffffffffffffffff1916908160001a9053507f780000000000000000000000000000000000000000000000000000000000000081600181518110610ee757610ee6611962565b5b60200101907effffffffffffffffffffffffffffffffffffffffffffffffffffffffffffff1916908160001a90535060006001846002610f2791906118bd565b610f3191906118ff565b90505b6001811115610fd1577f3031323334353637383961626364656600000000000000000000000000000000600f861660108110610f7357610f72611962565b5b1a60f81b828281518110610f8a57610f89611962565b5b60200101907effffffffffffffffffffffffffffffffffffffffffffffffffffffffffffff1916908160001a905350600485901c945080610fca90611991565b9050610f34565b5060008414611015576040517f08c379a000000000000000000000000000000000000000000000000000000000815260040161100c90611a06565b60405180910390fd5b8091505092915050565b600080fd5b60007fffffffff0000000000000000000000000000000000000000000000000000000082169050919050565b61105981611024565b811461106457600080fd5b50565b60008135905061107681611050565b92915050565b6000602082840312156110925761109161101f565b5b60006110a084828501611067565b91505092915050565b60008115159050919050565b6110be816110a9565b82525050565b60006020820190506110d960008301846110b5565b92915050565b600073ffffffffffffffffffffffffffffffffffffffff82169050919050565b600061110a826110df565b9050919050565b61111a816110ff565b811461112557600080fd5b50565b60008135905061113781611111565b92915050565b600080fd5b6000604082840312156111585761115761113d565b5b81905092915050565b600080606083850312156111785761117761101f565b5b600061118685828601611128565b925050602061119785828601611142565b9150509250929050565b6000819050919050565b6111b4816111a1565b81146111bf57600080fd5b50565b6000813590506111d1816111ab565b92915050565b6000602082840312156111ed576111ec61101f565b5b60006111fb848285016111c2565b91505092915050565b61120d816111a1565b82525050565b60006020820190506112286000830184611204565b92915050565b600080604083850312156112455761124461101f565b5b6000611253858286016111c2565b925050602061126485828601611128565b9150509250929050565b611277816110ff565b82525050565b6000602082019050611292600083018461126e565b92915050565b6000602082840312156112ae576112ad61101f565b5b60006112bc84828501611128565b91505092915050565b600080604083850312156112dc576112db61101f565b5b60006112ea85828601611128565b92505060206112fb85828601611128565b9150509250929050565b6000806040838503121561131c5761131b61101f565b5b600061132a85828601611128565b925050602061133b858286016111c2565b9150509250929050565b61134e816110a9565b811461135957600080fd5b50565b60008135905061136b81611345565b92915050565b60008060006060848603121561138a5761138961101f565b5b600061139886828701611128565b93505060206113a9868287016111c2565b92505060406113ba8682870161135c565b9150509250925092565b6000806000606084860312156113dd576113dc61101f565b5b60006113eb86828701611128565b93505060206113fc86828701611128565b925050604061140d8682870161135c565b9150509250925092565b600061ffff82169050919050565b61142e81611417565b82525050565b600060ff82169050919050565b61144a81611434565b82525050565b60006040820190506114656000830185611425565b6114726020830184611441565b9392505050565b61148281611417565b811461148d57600080fd5b50565b6000813561149d81611479565b80915050919050565b60008160001b9050919050565b600061ffff6114c1846114a6565b9350801983169250808416831791505092915050565b6000819050919050565b60006114fc6114f76114f284611417565b6114d7565b611417565b9050919050565b6000819050919050565b611516826114e1565b61152961152282611503565b83546114b3565b8255505050565b61153981611434565b811461154457600080fd5b50565b6000813561155481611530565b80915050919050565b60008160101b9050919050565b600062ff00006115798461155d565b9350801983169250808416831791505092915050565b60006115aa6115a56115a084611434565b6114d7565b611434565b9050919050565b6000819050919050565b6115c48261158f565b6115d76115d0826115b1565b835461156a565b8255505050565b6000810160008301806115f081611490565b90506115fc818461150d565b50505060008101602083018061161181611547565b905061161d81846115bb565b5050505050565b61162e82826115de565b5050565b600082825260208201905092915050565b7f416363657373436f6e74726f6c3a2063616e206f6e6c792072656e6f756e636560008201527f20726f6c657320666f722073656c660000000000000000000000000000000000602082015250565b600061169f602f83611632565b91506116aa82611643565b604082019050919050565b600060208201905081810360008301526116ce81611692565b9050919050565b600081905092915050565b7f416363657373436f6e74726f6c3a206163636f756e7420000000000000000000600082015250565b60006117166017836116d5565b9150611721826116e0565b601782019050919050565b600081519050919050565b60005b8381101561175557808201518184015260208101905061173a565b60008484015250505050565b600061176c8261172c565b61177681856116d5565b9350611786818560208601611737565b80840191505092915050565b7f206973206d697373696e6720726f6c6520000000000000000000000000000000600082015250565b60006117c86011836116d5565b91506117d382611792565b601182019050919050565b60006117e982611709565b91506117f58285611761565b9150611800826117bb565b915061180c8284611761565b91508190509392505050565b6000601f19601f8301169050919050565b60006118348261172c565b61183e8185611632565b935061184e818560208601611737565b61185781611818565b840191505092915050565b6000602082019050818103600083015261187c8184611829565b905092915050565b6000819050919050565b7f4e487b7100000000000000000000000000000000000000000000000000000000600052601160045260246000fd5b60006118c882611884565b91506118d383611884565b92508282026118e181611884565b915082820484148315176118f8576118f761188e565b5b5092915050565b600061190a82611884565b915061191583611884565b925082820190508082111561192d5761192c61188e565b5b92915050565b7f4e487b7100000000000000000000000000000000000000000000000000000000600052604160045260246000fd5b7f4e487b7100000000000000000000000000000000000000000000000000000000600052603260045260246000fd5b600061199c82611884565b9150600082036119af576119ae61188e565b5b600182039050919050565b7f537472696e67733a20686578206c656e67746820696e73756666696369656e74600082015250565b60006119f0602083611632565b91506119fb826119ba565b602082019050919050565b60006020820190508181036000830152611a1f816119e3565b905091905056fea264697066735822122099c73f5cbbd5cb2a5749d2d6b082212ebd241fd60b28722d33e015194c5baee364736f6c63430008110033608060405234801561001057600080fd5b50604051610f39380380610f39833981810160405281019061003291906100db565b806000806101000a81548173ffffffffffffffffffffffffffffffffffffffff021916908373ffffffffffffffffffffffffffffffffffffffff16021790555050610108565b600080fd5b600073ffffffffffffffffffffffffffffffffffffffff82169050919050565b60006100a88261007d565b9050919050565b6100b88161009d565b81146100c357600080fd5b50565b6000815190506100d5816100af565b92915050565b6000602082840312156100f1576100f0610078565b5b60006100ff848285016100c6565b91505092915050565b610e22806101176000396000f3fe608060405234801561001057600080fd5b50600436106100415760003560e01c806366e77fd914610046578063a519fe5d14610076578063f81cd4b014610092575b600080fd5b610060600480360381019061005b919061096d565b6100ae565b60405161006d91906109b5565b60405180910390f35b610090600480360381019061008b919061096d565b61014d565b005b6100ac60048036038101906100a79190610a09565b6101db565b005b6000806100ba836107c6565b90506e0c2e074ec69a0dfb2997ba6c7d2e1e73ffffffffffffffffffffffffffffffffffffffff1663f79fe538826040518263ffffffff1660e01b81526004016101049190610a62565b602060405180830381865afa158015610121573d6000803e3d6000fd5b505050506040513d601f19601f820116820180604052508101906101459190610aa9565b915050919050565b60008054906101000a900473ffffffffffffffffffffffffffffffffffffffff1673ffffffffffffffffffffffffffffffffffffffff16634420e486826040518263ffffffff1660e01b81526004016101a69190610ae5565b600060405180830381600087803b1580156101c057600080fd5b505af11580156101d4573d6000803e3d6000fd5b5050505050565b60008054906101000a900473ffffffffffffffffffffffffffffffffffffffff1673ffffffffffffffffffffffffffffffffffffffff1663b2dd5c07336040518263ffffffff1660e01b81526004016102349190610ae5565b6020604051808303816000875af1158015610253573d6000803e3d6000fd5b505050506040513d601f19601f820116820180604052508101906102779190610aa9565b6102b857336040517fae2730ca0000000000000000000000000000000000000000000000000000000081526004016102af9190610ae5565b60405180910390fd5b60008054906101000a900473ffffffffffffffffffffffffffffffffffffffff1673ffffffffffffffffffffffffffffffffffffffff1663b2dd5c07836040518263ffffffff1660e01b81526004016103119190610ae5565b6020604051808303816000875af1158015610330573d6000803e3d6000fd5b505050506040513d601f19601f820116820180604052508101906103549190610aa9565b61039557816040517fae2730ca00000000000000000000000000000000000000000000000000000000815260040161038c9190610ae5565b60405180910390fd5b8173ffffffffffffffffffffffffffffffffffffffff163373ffffffffffffffffffffffffffffffffffffffff16036103fa576040517f7f04724a00000000000000000000000000000000000000000000000000000000815260040160405180910390fd5b600060ff168160ff1610806104155750606460ff168160ff16115b1561044c576040517f82e55d7d00000000000000000000000000000000000000000000000000000000815260040160405180910390fd5b610455826100ae565b61048b576040517fbe58ee6200000000000000000000000000000000000000000000000000000000815260040160405180910390fd5b60008054906101000a900473ffffffffffffffffffffffffffffffffffffffff1673ffffffffffffffffffffffffffffffffffffffff16633c8783d933846040518363ffffffff1660e01b81526004016104e6929190610b00565b6020604051808303816000875af1158015610505573d6000803e3d6000fd5b505050506040513d601f19601f820116820180604052508101906105299190610aa9565b15610560576040517f7988071900000000000000000000000000000000000000000000000000000000815260040160405180910390fd5b60008054906101000a900473ffffffffffffffffffffffffffffffffffffffff1673ffffffffffffffffffffffffffffffffffffffff1663c39b3f11338460016040518463ffffffff1660e01b81526004016105be93929190610b29565b600060405180830381600087803b1580156105d857600080fd5b505af11580156105ec573d6000803e3d6000fd5b5050505060008060008054906101000a900473ffffffffffffffffffffffffffffffffffffffff1673ffffffffffffffffffffffffffffffffffffffff1663dbb5a0e3856040518263ffffffff1660e01b815260040161064c9190610ae5565b60408051808303816000875af115801561066a573d6000803e3d6000fd5b505050506040513d601f19601f8201168201806040525081019061068e9190610baf565b9150915060006106a58260ff16848660ff16610823565b90506106af6108e9565b6001846106bc9190610c1e565b816000019061ffff16908161ffff168152505081816020019060ff16908160ff168152505060008054906101000a900473ffffffffffffffffffffffffffffffffffffffff1673ffffffffffffffffffffffffffffffffffffffff1663084539c587836040518363ffffffff1660e01b815260040161073c929190610ca1565b600060405180830381600087803b15801561075657600080fd5b505af115801561076a573d6000803e3d6000fd5b505050508573ffffffffffffffffffffffffffffffffffffffff167f359b6b955e4279add591f3b9b504189356aa2406173f120825aaccfc94dd6d7233876040516107b6929190610cd9565b60405180910390a2505050505050565b60007f91d1777781884d03a6757a803996e38de2a42967fb37eeaca72729271025a9e260001b6107f583610861565b604051602001610806929190610d23565b604051602081830303815290604052805190602001209050919050565b6000806001846108339190610c1e565b8385876108409190610d4f565b61084a9190610c1e565b6108549190610dbb565b9050809150509392505050565b600060285b60008111156108dc576001810390507f3031323334353637383961626364656600000000000000000000000000000000600f84161a81536010830492506001810390507f3031323334353637383961626364656600000000000000000000000000000000600f84161a8153601083049250610866565b5060286000209050919050565b6040518060400160405280600061ffff168152602001600060ff1681525090565b600080fd5b600073ffffffffffffffffffffffffffffffffffffffff82169050919050565b600061093a8261090f565b9050919050565b61094a8161092f565b811461095557600080fd5b50565b60008135905061096781610941565b92915050565b6000602082840312156109835761098261090a565b5b600061099184828501610958565b91505092915050565b60008115159050919050565b6109af8161099a565b82525050565b60006020820190506109ca60008301846109a6565b92915050565b600060ff82169050919050565b6109e6816109d0565b81146109f157600080fd5b50565b600081359050610a03816109dd565b92915050565b60008060408385031215610a2057610a1f61090a565b5b6000610a2e85828601610958565b9250506020610a3f858286016109f4565b9150509250929050565b6000819050919050565b610a5c81610a49565b82525050565b6000602082019050610a776000830184610a53565b92915050565b610a868161099a565b8114610a9157600080fd5b50565b600081519050610aa381610a7d565b92915050565b600060208284031215610abf57610abe61090a565b5b6000610acd84828501610a94565b91505092915050565b610adf8161092f565b82525050565b6000602082019050610afa6000830184610ad6565b92915050565b6000604082019050610b156000830185610ad6565b610b226020830184610ad6565b9392505050565b6000606082019050610b3e6000830186610ad6565b610b4b6020830185610ad6565b610b5860408301846109a6565b949350505050565b600061ffff82169050919050565b610b7781610b60565b8114610b8257600080fd5b50565b600081519050610b9481610b6e565b92915050565b600081519050610ba9816109dd565b92915050565b60008060408385031215610bc657610bc561090a565b5b6000610bd485828601610b85565b9250506020610be585828601610b9a565b9150509250929050565b7f4e487b7100000000000000000000000000000000000000000000000000000000600052601160045260246000fd5b6000610c2982610b60565b9150610c3483610b60565b9250828201905061ffff811115610c4e57610c4d610bef565b5b92915050565b610c5d81610b60565b82525050565b610c6c816109d0565b82525050565b604082016000820151610c886000850182610c54565b506020820151610c9b6020850182610c63565b50505050565b6000606082019050610cb66000830185610ad6565b610cc36020830184610c72565b9392505050565b610cd3816109d0565b82525050565b6000604082019050610cee6000830185610ad6565b610cfb6020830184610cca565b9392505050565b6000819050919050565b610d1d610d1882610a49565b610d02565b82525050565b6000610d2f8285610d0c565b602082019150610d3f8284610d0c565b6020820191508190509392505050565b6000610d5a82610b60565b9150610d6583610b60565b9250828202610d7381610b60565b9150808214610d8557610d84610bef565b5b5092915050565b7f4e487b7100000000000000000000000000000000000000000000000000000000600052601260045260246000fd5b6000610dc682610b60565b9150610dd183610b60565b925082610de157610de0610d8c565b5b82820490509291505056fea26469706673582212202e8d38893db7b610a7dbe0834eb242020176609d900ff5f72ad477ff372d87ed64736f6c63430008110033608060405234801561001057600080fd5b50604051610d7b380380610d7b833981810160405281019061003291906100db565b806000806101000a81548173ffffffffffffffffffffffffffffffffffffffff021916908373ffffffffffffffffffffffffffffffffffffffff16021790555050610108565b600080fd5b600073ffffffffffffffffffffffffffffffffffffffff82169050919050565b60006100a88261007d565b9050919050565b6100b88161009d565b81146100c357600080fd5b50565b6000815190506100d5816100af565b92915050565b6000602082840312156100f1576100f0610078565b5b60006100ff848285016100c6565b91505092915050565b610c64806101176000396000f3fe608060405234801561001057600080fd5b50600436106100415760003560e01c80639a58394514610046578063a519fe5d14610062578063b6aeb7831461007e575b600080fd5b610060600480360381019061005b9190610839565b61009c565b005b61007c6004803603810190610077919061088c565b610656565b005b6100866106e4565b60405161009391906108c8565b60405180910390f35b60008054906101000a900473ffffffffffffffffffffffffffffffffffffffff1673ffffffffffffffffffffffffffffffffffffffff1663b2dd5c07336040518263ffffffff1660e01b81526004016100f591906108c8565b6020604051808303816000875af1158015610114573d6000803e3d6000fd5b505050506040513d601f19601f82011682018060405250810190610138919061091b565b61017957336040517fae2730ca00000000000000000000000000000000000000000000000000000000815260040161017091906108c8565b60405180910390fd5b60008054906101000a900473ffffffffffffffffffffffffffffffffffffffff1673ffffffffffffffffffffffffffffffffffffffff1663b2dd5c07846040518263ffffffff1660e01b81526004016101d291906108c8565b6020604051808303816000875af11580156101f1573d6000803e3d6000fd5b505050506040513d601f19601f82011682018060405250810190610215919061091b565b61025657826040517fae2730ca00000000000000000000000000000000000000000000000000000000815260040161024d91906108c8565b60405180910390fd5b8273ffffffffffffffffffffffffffffffffffffffff163373ffffffffffffffffffffffffffffffffffffffff16036102bb576040517f7f04724a00000000000000000000000000000000000000000000000000000000815260040160405180910390fd5b600060ff168160ff1610806102d65750606460ff168160ff16115b1561030d576040517f82e55d7d00000000000000000000000000000000000000000000000000000000815260040160405180910390fd5b60008054906101000a900473ffffffffffffffffffffffffffffffffffffffff1673ffffffffffffffffffffffffffffffffffffffff16637a1bcf4533846040518363ffffffff1660e01b8152600401610368929190610957565b6020604051808303816000875af1158015610387573d6000803e3d6000fd5b505050506040513d601f19601f820116820180604052508101906103ab919061091b565b156103ed57816040517f96227bcf0000000000000000000000000000000000000000000000000000000081526004016103e49190610980565b60405180910390fd5b60008054906101000a900473ffffffffffffffffffffffffffffffffffffffff1673ffffffffffffffffffffffffffffffffffffffff166388060f65338460016040518463ffffffff1660e01b815260040161044b939291906109aa565b600060405180830381600087803b15801561046557600080fd5b505af1158015610479573d6000803e3d6000fd5b5050505060008060008054906101000a900473ffffffffffffffffffffffffffffffffffffffff1673ffffffffffffffffffffffffffffffffffffffff1663d4257997866040518263ffffffff1660e01b81526004016104d991906108c8565b60408051808303816000875af11580156104f7573d6000803e3d6000fd5b505050506040513d601f19601f8201168201806040525081019061051b9190610a30565b9150915060006105328260ff16848660ff16610708565b905061053c610746565b6001846105499190610a9f565b816000019061ffff16908161ffff168152505081816020019060ff16908160ff168152505060008054906101000a900473ffffffffffffffffffffffffffffffffffffffff1673ffffffffffffffffffffffffffffffffffffffff166350fec32088836040518363ffffffff1660e01b81526004016105c9929190610b22565b600060405180830381600087803b1580156105e357600080fd5b505af11580156105f7573d6000803e3d6000fd5b505050508673ffffffffffffffffffffffffffffffffffffffff167fe5b620428fc7d43c02b19c20e8d14edfef8ae8107119f3e4e4c1c1d99bda6d3933888860405161064593929190610b5a565b60405180910390a250505050505050565b60008054906101000a900473ffffffffffffffffffffffffffffffffffffffff1673ffffffffffffffffffffffffffffffffffffffff16634420e486826040518263ffffffff1660e01b81526004016106af91906108c8565b600060405180830381600087803b1580156106c957600080fd5b505af11580156106dd573d6000803e3d6000fd5b5050505050565b60008054906101000a900473ffffffffffffffffffffffffffffffffffffffff1681565b6000806001846107189190610a9f565b8385876107259190610b91565b61072f9190610a9f565b6107399190610bfd565b9050809150509392505050565b6040518060400160405280600061ffff168152602001600060ff1681525090565b600080fd5b600073ffffffffffffffffffffffffffffffffffffffff82169050919050565b60006107978261076c565b9050919050565b6107a78161078c565b81146107b257600080fd5b50565b6000813590506107c48161079e565b92915050565b6000819050919050565b6107dd816107ca565b81146107e857600080fd5b50565b6000813590506107fa816107d4565b92915050565b600060ff82169050919050565b61081681610800565b811461082157600080fd5b50565b6000813590506108338161080d565b92915050565b60008060006060848603121561085257610851610767565b5b6000610860868287016107b5565b9350506020610871868287016107eb565b925050604061088286828701610824565b9150509250925092565b6000602082840312156108a2576108a1610767565b5b60006108b0848285016107b5565b91505092915050565b6108c28161078c565b82525050565b60006020820190506108dd60008301846108b9565b92915050565b60008115159050919050565b6108f8816108e3565b811461090357600080fd5b50565b600081519050610915816108ef565b92915050565b60006020828403121561093157610930610767565b5b600061093f84828501610906565b91505092915050565b610951816107ca565b82525050565b600060408201905061096c60008301856108b9565b6109796020830184610948565b9392505050565b60006020820190506109956000830184610948565b92915050565b6109a4816108e3565b82525050565b60006060820190506109bf60008301866108b9565b6109cc6020830185610948565b6109d9604083018461099b565b949350505050565b600061ffff82169050919050565b6109f8816109e1565b8114610a0357600080fd5b50565b600081519050610a15816109ef565b92915050565b600081519050610a2a8161080d565b92915050565b60008060408385031215610a4757610a46610767565b5b6000610a5585828601610a06565b9250506020610a6685828601610a1b565b9150509250929050565b7f4e487b7100000000000000000000000000000000000000000000000000000000600052601160045260246000fd5b6000610aaa826109e1565b9150610ab5836109e1565b9250828201905061ffff811115610acf57610ace610a70565b5b92915050565b610ade816109e1565b82525050565b610aed81610800565b82525050565b604082016000820151610b096000850182610ad5565b506020820151610b1c6020850182610ae4565b50505050565b6000606082019050610b3760008301856108b9565b610b446020830184610af3565b9392505050565b610b5481610800565b82525050565b6000606082019050610b6f60008301866108b9565b610b7c6020830185610948565b610b896040830184610b4b565b949350505050565b6000610b9c826109e1565b9150610ba7836109e1565b9250828202610bb5816109e1565b9150808214610bc757610bc6610a70565b5b5092915050565b7f4e487b7100000000000000000000000000000000000000000000000000000000600052601260045260246000fd5b6000610c08826109e1565b9150610c13836109e1565b925082610c2357610c22610bce565b5b82820490509291505056fea26469706673582212205fcc0e3e0381dd2cc46cd7964f16b20eefc19eb077ed65daa1bd12666ea6fde064736f6c63430008110033",
  "devdoc": {
    "kind": "dev",
    "methods": {
      "getRoleAdmin(bytes32)": {
        "details": "Returns the admin role that controls `role`. See {grantRole} and {revokeRole}. To change a role's admin, use {_setRoleAdmin}."
      },
      "grantRole(bytes32,address)": {
        "details": "Grants `role` to `account`. If `account` had not been already granted `role`, emits a {RoleGranted} event. Requirements: - the caller must have ``role``'s admin role. May emit a {RoleGranted} event."
      },
      "hasRole(bytes32,address)": {
        "details": "Returns `true` if `account` has been granted `role`."
      },
      "renounceRole(bytes32,address)": {
        "details": "Revokes `role` from the calling account. Roles are often managed via {grantRole} and {revokeRole}: this function's purpose is to provide a mechanism for accounts to lose their privileges if they are compromised (such as when a trusted device is misplaced). If the calling account had been revoked `role`, emits a {RoleRevoked} event. Requirements: - the caller must be `account`. May emit a {RoleRevoked} event."
      },
      "revokeRole(bytes32,address)": {
        "details": "Revokes `role` from `account`. If `account` had been granted `role`, emits a {RoleRevoked} event. Requirements: - the caller must have ``role``'s admin role. May emit a {RoleRevoked} event."
      },
      "supportsInterface(bytes4)": {
        "details": "See {IERC165-supportsInterface}."
      }
    },
    "version": 1
  },
  "userdoc": {
    "kind": "user",
    "methods": {
      "register(address)": {
        "notice": "assign a DRS domain to the address"
      }
    },
    "version": 1
  },
  "storageLayout": {
    "storage": [
      {
        "astId": 623,
        "contract": "contracts/DRS.sol:DRS",
        "label": "_roles",
        "offset": 0,
        "slot": "0",
        "type": "t_mapping(t_bytes32,t_struct(RoleData)618_storage)"
      },
      {
        "astId": 1406,
        "contract": "contracts/DRS.sol:DRS",
        "label": "registered",
        "offset": 0,
        "slot": "1",
        "type": "t_mapping(t_address,t_bool)"
      },
      {
        "astId": 1411,
        "contract": "contracts/DRS.sol:DRS",
        "label": "hashRating",
        "offset": 0,
        "slot": "2",
        "type": "t_mapping(t_address,t_struct(Record)2247_storage)"
      },
      {
        "astId": 1417,
        "contract": "contracts/DRS.sol:DRS",
        "label": "hashRated",
        "offset": 0,
        "slot": "3",
        "type": "t_mapping(t_address,t_mapping(t_bytes32,t_bool))"
      },
      {
        "astId": 1422,
        "contract": "contracts/DRS.sol:DRS",
        "label": "ensRating",
        "offset": 0,
        "slot": "4",
        "type": "t_mapping(t_address,t_struct(Record)2247_storage)"
      },
      {
        "astId": 1428,
        "contract": "contracts/DRS.sol:DRS",
        "label": "ensRated",
        "offset": 0,
        "slot": "5",
        "type": "t_mapping(t_address,t_mapping(t_address,t_bool))"
      },
      {
        "astId": 1430,
        "contract": "contracts/DRS.sol:DRS",
        "label": "ensContract",
        "offset": 0,
        "slot": "6",
        "type": "t_address"
      },
      {
        "astId": 1432,
        "contract": "contracts/DRS.sol:DRS",
        "label": "hashContract",
        "offset": 0,
        "slot": "7",
        "type": "t_address"
      }
    ],
    "types": {
      "t_address": {
        "encoding": "inplace",
        "label": "address",
        "numberOfBytes": "20"
      },
      "t_bool": {
        "encoding": "inplace",
        "label": "bool",
        "numberOfBytes": "1"
      },
      "t_bytes32": {
        "encoding": "inplace",
        "label": "bytes32",
        "numberOfBytes": "32"
      },
      "t_mapping(t_address,t_bool)": {
        "encoding": "mapping",
        "key": "t_address",
        "label": "mapping(address => bool)",
        "numberOfBytes": "32",
        "value": "t_bool"
      },
      "t_mapping(t_address,t_mapping(t_address,t_bool))": {
        "encoding": "mapping",
        "key": "t_address",
        "label": "mapping(address => mapping(address => bool))",
        "numberOfBytes": "32",
        "value": "t_mapping(t_address,t_bool)"
      },
      "t_mapping(t_address,t_mapping(t_bytes32,t_bool))": {
        "encoding": "mapping",
        "key": "t_address",
        "label": "mapping(address => mapping(bytes32 => bool))",
        "numberOfBytes": "32",
        "value": "t_mapping(t_bytes32,t_bool)"
      },
      "t_mapping(t_address,t_struct(Record)2247_storage)": {
        "encoding": "mapping",
        "key": "t_address",
        "label": "mapping(address => struct DataTypes.Record)",
        "numberOfBytes": "32",
        "value": "t_struct(Record)2247_storage"
      },
      "t_mapping(t_bytes32,t_bool)": {
        "encoding": "mapping",
        "key": "t_bytes32",
        "label": "mapping(bytes32 => bool)",
        "numberOfBytes": "32",
        "value": "t_bool"
      },
      "t_mapping(t_bytes32,t_struct(RoleData)618_storage)": {
        "encoding": "mapping",
        "key": "t_bytes32",
        "label": "mapping(bytes32 => struct AccessControl.RoleData)",
        "numberOfBytes": "32",
        "value": "t_struct(RoleData)618_storage"
      },
      "t_struct(Record)2247_storage": {
        "encoding": "inplace",
        "label": "struct DataTypes.Record",
        "members": [
          {
            "astId": 2244,
            "contract": "contracts/DRS.sol:DRS",
            "label": "count",
            "offset": 0,
            "slot": "0",
            "type": "t_uint16"
          },
          {
            "astId": 2246,
            "contract": "contracts/DRS.sol:DRS",
            "label": "score",
            "offset": 2,
            "slot": "0",
            "type": "t_uint8"
          }
        ],
        "numberOfBytes": "32"
      },
      "t_struct(RoleData)618_storage": {
        "encoding": "inplace",
        "label": "struct AccessControl.RoleData",
        "members": [
          {
            "astId": 615,
            "contract": "contracts/DRS.sol:DRS",
            "label": "members",
            "offset": 0,
            "slot": "0",
            "type": "t_mapping(t_address,t_bool)"
          },
          {
            "astId": 617,
            "contract": "contracts/DRS.sol:DRS",
            "label": "adminRole",
            "offset": 0,
            "slot": "1",
            "type": "t_bytes32"
          }
        ],
        "numberOfBytes": "64"
      },
      "t_uint16": {
        "encoding": "inplace",
        "label": "uint16",
        "numberOfBytes": "2"
      },
      "t_uint8": {
        "encoding": "inplace",
        "label": "uint8",
        "numberOfBytes": "1"
      }
    }
  }
}