{
  "address": "0x654b0D590Bbf10974655B9E869A193d5e78c9120",
  "abi": [
    {
      "inputs": [
        {
          "internalType": "address",
          "name": "_drs",
          "type": "address"
        }
      ],
      "stateMutability": "nonpayable",
      "type": "constructor"
    },
    {
      "inputs": [],
      "name": "ENSAlreadyRated",
      "type": "error"
    },
    {
      "inputs": [],
      "name": "ENSDomainNotFound",
      "type": "error"
    },
    {
      "inputs": [],
      "name": "NotAllowedToRateYourself",
      "type": "error"
    },
    {
      "inputs": [],
      "name": "RateOutOfRange",
      "type": "error"
    },
    {
      "inputs": [
        {
          "internalType": "address",
          "name": "_account",
          "type": "address"
        }
      ],
      "name": "UserNotRegistered",
      "type": "error"
    },
    {
      "anonymous": false,
      "inputs": [
        {
          "indexed": false,
          "internalType": "address",
          "name": "_from",
          "type": "address"
        },
        {
          "indexed": true,
          "internalType": "address",
          "name": "_to",
          "type": "address"
        },
        {
          "indexed": false,
          "internalType": "uint8",
          "name": "_score",
          "type": "uint8"
        }
      ],
      "name": "NewRating",
      "type": "event"
    },
    {
      "inputs": [
        {
          "internalType": "address",
          "name": "_address",
          "type": "address"
        }
      ],
      "name": "hasENS",
      "outputs": [
        {
          "internalType": "bool",
          "name": "",
          "type": "bool"
        }
      ],
      "stateMutability": "view",
      "type": "function"
    },
    {
      "inputs": [
        {
          "internalType": "address",
          "name": "_to",
          "type": "address"
        },
        {
          "internalType": "uint8",
          "name": "_score",
          "type": "uint8"
        }
      ],
      "name": "rate",
      "outputs": [],
      "stateMutability": "nonpayable",
      "type": "function"
    },
    {
      "inputs": [
        {
          "internalType": "address",
          "name": "_address",
          "type": "address"
        }
      ],
      "name": "registerNew",
      "outputs": [],
      "stateMutability": "nonpayable",
      "type": "function"
    }
  ],
  "transactionHash": "0xa97c637897171980665dc5d834ea7e2a00864f073c797eb35f1642982dee5565",
  "args": [
    "0x7383b894719d73b139d22603c2afffca34a53a76"
  ],
  "numDeployments": 1,
  "solcInputHash": "184d43ce10a1ceb6fcab0d273d83e2f2",
  "bytecode": "0x608060405234801561001057600080fd5b50604051610f39380380610f39833981810160405281019061003291906100db565b806000806101000a81548173ffffffffffffffffffffffffffffffffffffffff021916908373ffffffffffffffffffffffffffffffffffffffff16021790555050610108565b600080fd5b600073ffffffffffffffffffffffffffffffffffffffff82169050919050565b60006100a88261007d565b9050919050565b6100b88161009d565b81146100c357600080fd5b50565b6000815190506100d5816100af565b92915050565b6000602082840312156100f1576100f0610078565b5b60006100ff848285016100c6565b91505092915050565b610e22806101176000396000f3fe608060405234801561001057600080fd5b50600436106100415760003560e01c806366e77fd914610046578063a519fe5d14610076578063f81cd4b014610092575b600080fd5b610060600480360381019061005b919061096d565b6100ae565b60405161006d91906109b5565b60405180910390f35b610090600480360381019061008b919061096d565b61014d565b005b6100ac60048036038101906100a79190610a09565b6101db565b005b6000806100ba836107c6565b90506e0c2e074ec69a0dfb2997ba6c7d2e1e73ffffffffffffffffffffffffffffffffffffffff1663f79fe538826040518263ffffffff1660e01b81526004016101049190610a62565b602060405180830381865afa158015610121573d6000803e3d6000fd5b505050506040513d601f19601f820116820180604052508101906101459190610aa9565b915050919050565b60008054906101000a900473ffffffffffffffffffffffffffffffffffffffff1673ffffffffffffffffffffffffffffffffffffffff16634420e486826040518263ffffffff1660e01b81526004016101a69190610ae5565b600060405180830381600087803b1580156101c057600080fd5b505af11580156101d4573d6000803e3d6000fd5b5050505050565b60008054906101000a900473ffffffffffffffffffffffffffffffffffffffff1673ffffffffffffffffffffffffffffffffffffffff1663b2dd5c07336040518263ffffffff1660e01b81526004016102349190610ae5565b6020604051808303816000875af1158015610253573d6000803e3d6000fd5b505050506040513d601f19601f820116820180604052508101906102779190610aa9565b6102b857336040517fae2730ca0000000000000000000000000000000000000000000000000000000081526004016102af9190610ae5565b60405180910390fd5b60008054906101000a900473ffffffffffffffffffffffffffffffffffffffff1673ffffffffffffffffffffffffffffffffffffffff1663b2dd5c07836040518263ffffffff1660e01b81526004016103119190610ae5565b6020604051808303816000875af1158015610330573d6000803e3d6000fd5b505050506040513d601f19601f820116820180604052508101906103549190610aa9565b61039557816040517fae2730ca00000000000000000000000000000000000000000000000000000000815260040161038c9190610ae5565b60405180910390fd5b8173ffffffffffffffffffffffffffffffffffffffff163373ffffffffffffffffffffffffffffffffffffffff16036103fa576040517f7f04724a00000000000000000000000000000000000000000000000000000000815260040160405180910390fd5b600060ff168160ff1610806104155750606460ff168160ff16115b1561044c576040517f82e55d7d00000000000000000000000000000000000000000000000000000000815260040160405180910390fd5b610455826100ae565b61048b576040517fbe58ee6200000000000000000000000000000000000000000000000000000000815260040160405180910390fd5b60008054906101000a900473ffffffffffffffffffffffffffffffffffffffff1673ffffffffffffffffffffffffffffffffffffffff16633c8783d933846040518363ffffffff1660e01b81526004016104e6929190610b00565b6020604051808303816000875af1158015610505573d6000803e3d6000fd5b505050506040513d601f19601f820116820180604052508101906105299190610aa9565b15610560576040517f7988071900000000000000000000000000000000000000000000000000000000815260040160405180910390fd5b60008054906101000a900473ffffffffffffffffffffffffffffffffffffffff1673ffffffffffffffffffffffffffffffffffffffff1663c39b3f11338460016040518463ffffffff1660e01b81526004016105be93929190610b29565b600060405180830381600087803b1580156105d857600080fd5b505af11580156105ec573d6000803e3d6000fd5b5050505060008060008054906101000a900473ffffffffffffffffffffffffffffffffffffffff1673ffffffffffffffffffffffffffffffffffffffff1663dbb5a0e3856040518263ffffffff1660e01b815260040161064c9190610ae5565b60408051808303816000875af115801561066a573d6000803e3d6000fd5b505050506040513d601f19601f8201168201806040525081019061068e9190610baf565b9150915060006106a58260ff16848660ff16610823565b90506106af6108e9565b6001846106bc9190610c1e565b816000019061ffff16908161ffff168152505081816020019060ff16908160ff168152505060008054906101000a900473ffffffffffffffffffffffffffffffffffffffff1673ffffffffffffffffffffffffffffffffffffffff1663084539c587836040518363ffffffff1660e01b815260040161073c929190610ca1565b600060405180830381600087803b15801561075657600080fd5b505af115801561076a573d6000803e3d6000fd5b505050508573ffffffffffffffffffffffffffffffffffffffff167f359b6b955e4279add591f3b9b504189356aa2406173f120825aaccfc94dd6d7233876040516107b6929190610cd9565b60405180910390a2505050505050565b60007f91d1777781884d03a6757a803996e38de2a42967fb37eeaca72729271025a9e260001b6107f583610861565b604051602001610806929190610d23565b604051602081830303815290604052805190602001209050919050565b6000806001846108339190610c1e565b8385876108409190610d4f565b61084a9190610c1e565b6108549190610dbb565b9050809150509392505050565b600060285b60008111156108dc576001810390507f3031323334353637383961626364656600000000000000000000000000000000600f84161a81536010830492506001810390507f3031323334353637383961626364656600000000000000000000000000000000600f84161a8153601083049250610866565b5060286000209050919050565b6040518060400160405280600061ffff168152602001600060ff1681525090565b600080fd5b600073ffffffffffffffffffffffffffffffffffffffff82169050919050565b600061093a8261090f565b9050919050565b61094a8161092f565b811461095557600080fd5b50565b60008135905061096781610941565b92915050565b6000602082840312156109835761098261090a565b5b600061099184828501610958565b91505092915050565b60008115159050919050565b6109af8161099a565b82525050565b60006020820190506109ca60008301846109a6565b92915050565b600060ff82169050919050565b6109e6816109d0565b81146109f157600080fd5b50565b600081359050610a03816109dd565b92915050565b60008060408385031215610a2057610a1f61090a565b5b6000610a2e85828601610958565b9250506020610a3f858286016109f4565b9150509250929050565b6000819050919050565b610a5c81610a49565b82525050565b6000602082019050610a776000830184610a53565b92915050565b610a868161099a565b8114610a9157600080fd5b50565b600081519050610aa381610a7d565b92915050565b600060208284031215610abf57610abe61090a565b5b6000610acd84828501610a94565b91505092915050565b610adf8161092f565b82525050565b6000602082019050610afa6000830184610ad6565b92915050565b6000604082019050610b156000830185610ad6565b610b226020830184610ad6565b9392505050565b6000606082019050610b3e6000830186610ad6565b610b4b6020830185610ad6565b610b5860408301846109a6565b949350505050565b600061ffff82169050919050565b610b7781610b60565b8114610b8257600080fd5b50565b600081519050610b9481610b6e565b92915050565b600081519050610ba9816109dd565b92915050565b60008060408385031215610bc657610bc561090a565b5b6000610bd485828601610b85565b9250506020610be585828601610b9a565b9150509250929050565b7f4e487b7100000000000000000000000000000000000000000000000000000000600052601160045260246000fd5b6000610c2982610b60565b9150610c3483610b60565b9250828201905061ffff811115610c4e57610c4d610bef565b5b92915050565b610c5d81610b60565b82525050565b610c6c816109d0565b82525050565b604082016000820151610c886000850182610c54565b506020820151610c9b6020850182610c63565b50505050565b6000606082019050610cb66000830185610ad6565b610cc36020830184610c72565b9392505050565b610cd3816109d0565b82525050565b6000604082019050610cee6000830185610ad6565b610cfb6020830184610cca565b9392505050565b6000819050919050565b610d1d610d1882610a49565b610d02565b82525050565b6000610d2f8285610d0c565b602082019150610d3f8284610d0c565b6020820191508190509392505050565b6000610d5a82610b60565b9150610d6583610b60565b9250828202610d7381610b60565b9150808214610d8557610d84610bef565b5b5092915050565b7f4e487b7100000000000000000000000000000000000000000000000000000000600052601260045260246000fd5b6000610dc682610b60565b9150610dd183610b60565b925082610de157610de0610d8c565b5b82820490509291505056fea26469706673582212202e8d38893db7b610a7dbe0834eb242020176609d900ff5f72ad477ff372d87ed64736f6c63430008110033",
  "devdoc": {
    "kind": "dev",
    "methods": {},
    "version": 1
  },
  "userdoc": {
    "kind": "user",
    "methods": {
      "hasENS(address)": {
        "notice": "check if the address has an ENS domain associatedthis function only tells if a record was ever set with this address. A more robust check will be done via subgraph"
      },
      "rate(address,uint8)": {
        "notice": "assign a rating to another address with an ENS domain"
      }
    },
    "version": 1
  },
  "storageLayout": {
    "storage": [
      {
        "astId": 1639,
        "contract": "contracts/RateENS.sol:RateENS",
        "label": "drs",
        "offset": 0,
        "slot": "0",
        "type": "t_address"
      }
    ],
    "types": {
      "t_address": {
        "encoding": "inplace",
        "label": "address",
        "numberOfBytes": "20"
      }
    }
  }
}